{
  "_format": "hh-sol-artifact-1",
  "contractName": "MultiLPStaking",
  "sourceName": "contracts/MultiLPStaking.sol",
  "abi": [
    {
      "inputs": [
        {
          "internalType": "address",
          "name": "_rewardToken",
          "type": "address"
        },
        {
          "internalType": "uint256",
          "name": "_rewardPerSecond",
          "type": "uint256"
        },
        {
          "internalType": "uint256",
          "name": "_startTime",
          "type": "uint256"
        }
      ],
      "stateMutability": "nonpayable",
      "type": "constructor"
    },
    {
      "inputs": [
        {
          "internalType": "address",
          "name": "owner",
          "type": "address"
        }
      ],
      "name": "OwnableInvalidOwner",
      "type": "error"
    },
    {
      "inputs": [
        {
          "internalType": "address",
          "name": "account",
          "type": "address"
        }
      ],
      "name": "OwnableUnauthorizedAccount",
      "type": "error"
    },
    {
      "inputs": [],
      "name": "ReentrancyGuardReentrantCall",
      "type": "error"
    },
    {
      "inputs": [
        {
          "internalType": "address",
          "name": "token",
          "type": "address"
        }
      ],
      "name": "SafeERC20FailedOperation",
      "type": "error"
    },
    {
      "anonymous": false,
      "inputs": [
        {
          "indexed": true,
          "internalType": "uint256",
          "name": "pid",
          "type": "uint256"
        },
        {
          "indexed": false,
          "internalType": "address",
          "name": "lpToken",
          "type": "address"
        },
        {
          "indexed": false,
          "internalType": "uint256",
          "name": "allocPoint",
          "type": "uint256"
        }
      ],
      "name": "AddPool",
      "type": "event"
    },
    {
      "anonymous": false,
      "inputs": [
        {
          "indexed": true,
          "internalType": "address",
          "name": "user",
          "type": "address"
        },
        {
          "indexed": true,
          "internalType": "uint256",
          "name": "pid",
          "type": "uint256"
        },
        {
          "indexed": false,
          "internalType": "uint256",
          "name": "amount",
          "type": "uint256"
        }
      ],
      "name": "Deposit",
      "type": "event"
    },
    {
      "anonymous": false,
      "inputs": [
        {
          "indexed": true,
          "internalType": "address",
          "name": "user",
          "type": "address"
        },
        {
          "indexed": true,
          "internalType": "uint256",
          "name": "pid",
          "type": "uint256"
        },
        {
          "indexed": false,
          "internalType": "uint256",
          "name": "amount",
          "type": "uint256"
        }
      ],
      "name": "EmergencyWithdraw",
      "type": "event"
    },
    {
      "anonymous": false,
      "inputs": [
        {
          "indexed": true,
          "internalType": "address",
          "name": "user",
          "type": "address"
        },
        {
          "indexed": true,
          "internalType": "uint256",
          "name": "pid",
          "type": "uint256"
        },
        {
          "indexed": false,
          "internalType": "uint256",
          "name": "amountPaid",
          "type": "uint256"
        }
      ],
      "name": "Harvest",
      "type": "event"
    },
    {
      "anonymous": false,
      "inputs": [
        {
          "indexed": true,
          "internalType": "address",
          "name": "previousOwner",
          "type": "address"
        },
        {
          "indexed": true,
          "internalType": "address",
          "name": "newOwner",
          "type": "address"
        }
      ],
      "name": "OwnershipTransferred",
      "type": "event"
    },
    {
      "anonymous": false,
      "inputs": [
        {
          "indexed": false,
          "internalType": "uint256",
          "name": "oldValue",
          "type": "uint256"
        },
        {
          "indexed": false,
          "internalType": "uint256",
          "name": "newValue",
          "type": "uint256"
        }
      ],
      "name": "RewardPerSecondUpdated",
      "type": "event"
    },
    {
      "anonymous": false,
      "inputs": [
        {
          "indexed": true,
          "internalType": "uint256",
          "name": "pid",
          "type": "uint256"
        },
        {
          "indexed": false,
          "internalType": "uint256",
          "name": "oldAllocPoint",
          "type": "uint256"
        },
        {
          "indexed": false,
          "internalType": "uint256",
          "name": "newAllocPoint",
          "type": "uint256"
        }
      ],
      "name": "SetPool",
      "type": "event"
    },
    {
      "anonymous": false,
      "inputs": [
        {
          "indexed": false,
          "internalType": "uint256",
          "name": "oldValue",
          "type": "uint256"
        },
        {
          "indexed": false,
          "internalType": "uint256",
          "name": "newValue",
          "type": "uint256"
        }
      ],
      "name": "StartTimeUpdated",
      "type": "event"
    },
    {
      "anonymous": false,
      "inputs": [
        {
          "indexed": true,
          "internalType": "address",
          "name": "user",
          "type": "address"
        },
        {
          "indexed": true,
          "internalType": "uint256",
          "name": "pid",
          "type": "uint256"
        },
        {
          "indexed": false,
          "internalType": "uint256",
          "name": "amount",
          "type": "uint256"
        }
      ],
      "name": "Withdraw",
      "type": "event"
    },
    {
      "inputs": [
        {
          "internalType": "uint256",
          "name": "allocPoint",
          "type": "uint256"
        },
        {
          "internalType": "address",
          "name": "lpToken",
          "type": "address"
        },
        {
          "internalType": "bool",
          "name": "withUpdate",
          "type": "bool"
        }
      ],
      "name": "addPool",
      "outputs": [],
      "stateMutability": "nonpayable",
      "type": "function"
    },
    {
      "inputs": [
        {
          "internalType": "uint256",
          "name": "pid",
          "type": "uint256"
        },
        {
          "internalType": "uint256",
          "name": "amount",
          "type": "uint256"
        }
      ],
      "name": "deposit",
      "outputs": [],
      "stateMutability": "nonpayable",
      "type": "function"
    },
    {
      "inputs": [
        {
          "internalType": "uint256",
          "name": "pid",
          "type": "uint256"
        }
      ],
      "name": "emergencyWithdraw",
      "outputs": [],
      "stateMutability": "nonpayable",
      "type": "function"
    },
    {
      "inputs": [
        {
          "internalType": "uint256",
          "name": "pid",
          "type": "uint256"
        }
      ],
      "name": "harvest",
      "outputs": [],
      "stateMutability": "nonpayable",
      "type": "function"
    },
    {
      "inputs": [],
      "name": "massUpdatePools",
      "outputs": [],
      "stateMutability": "nonpayable",
      "type": "function"
    },
    {
      "inputs": [],
      "name": "owner",
      "outputs": [
        {
          "internalType": "address",
          "name": "",
          "type": "address"
        }
      ],
      "stateMutability": "view",
      "type": "function"
    },
    {
      "inputs": [
        {
          "internalType": "uint256",
          "name": "pid",
          "type": "uint256"
        },
        {
          "internalType": "address",
          "name": "user",
          "type": "address"
        }
      ],
      "name": "pendingRewards",
      "outputs": [
        {
          "internalType": "uint256",
          "name": "",
          "type": "uint256"
        }
      ],
      "stateMutability": "view",
      "type": "function"
    },
    {
      "inputs": [
        {
          "internalType": "uint256",
          "name": "",
          "type": "uint256"
        }
      ],
      "name": "poolInfo",
      "outputs": [
        {
          "internalType": "contract IERC20",
          "name": "lpToken",
          "type": "address"
        },
        {
          "internalType": "uint256",
          "name": "allocPoint",
          "type": "uint256"
        },
        {
          "internalType": "uint256",
          "name": "lastRewardTime",
          "type": "uint256"
        },
        {
          "internalType": "uint256",
          "name": "accRewardPerShare",
          "type": "uint256"
        },
        {
          "internalType": "uint256",
          "name": "totalStaked",
          "type": "uint256"
        }
      ],
      "stateMutability": "view",
      "type": "function"
    },
    {
      "inputs": [],
      "name": "poolLength",
      "outputs": [
        {
          "internalType": "uint256",
          "name": "",
          "type": "uint256"
        }
      ],
      "stateMutability": "view",
      "type": "function"
    },
    {
      "inputs": [],
      "name": "renounceOwnership",
      "outputs": [],
      "stateMutability": "nonpayable",
      "type": "function"
    },
    {
      "inputs": [],
      "name": "rewardPerSecond",
      "outputs": [
        {
          "internalType": "uint256",
          "name": "",
          "type": "uint256"
        }
      ],
      "stateMutability": "view",
      "type": "function"
    },
    {
      "inputs": [],
      "name": "rewardToken",
      "outputs": [
        {
          "internalType": "contract IERC20",
          "name": "",
          "type": "address"
        }
      ],
      "stateMutability": "view",
      "type": "function"
    },
    {
      "inputs": [
        {
          "internalType": "uint256",
          "name": "pid",
          "type": "uint256"
        },
        {
          "internalType": "uint256",
          "name": "newAllocPoint",
          "type": "uint256"
        },
        {
          "internalType": "bool",
          "name": "withUpdate",
          "type": "bool"
        }
      ],
      "name": "setPool",
      "outputs": [],
      "stateMutability": "nonpayable",
      "type": "function"
    },
    {
      "inputs": [
        {
          "internalType": "uint256",
          "name": "newValue",
          "type": "uint256"
        },
        {
          "internalType": "bool",
          "name": "withUpdate",
          "type": "bool"
        }
      ],
      "name": "setRewardPerSecond",
      "outputs": [],
      "stateMutability": "nonpayable",
      "type": "function"
    },
    {
      "inputs": [
        {
          "internalType": "uint256",
          "name": "newStartTime",
          "type": "uint256"
        },
        {
          "internalType": "bool",
          "name": "withUpdate",
          "type": "bool"
        }
      ],
      "name": "setStartTime",
      "outputs": [],
      "stateMutability": "nonpayable",
      "type": "function"
    },
    {
      "inputs": [],
      "name": "startTime",
      "outputs": [
        {
          "internalType": "uint256",
          "name": "",
          "type": "uint256"
        }
      ],
      "stateMutability": "view",
      "type": "function"
    },
    {
      "inputs": [],
      "name": "totalAllocPoint",
      "outputs": [
        {
          "internalType": "uint256",
          "name": "",
          "type": "uint256"
        }
      ],
      "stateMutability": "view",
      "type": "function"
    },
    {
      "inputs": [
        {
          "internalType": "address",
          "name": "newOwner",
          "type": "address"
        }
      ],
      "name": "transferOwnership",
      "outputs": [],
      "stateMutability": "nonpayable",
      "type": "function"
    },
    {
      "inputs": [
        {
          "internalType": "uint256",
          "name": "pid",
          "type": "uint256"
        }
      ],
      "name": "updatePool",
      "outputs": [],
      "stateMutability": "nonpayable",
      "type": "function"
    },
    {
      "inputs": [
        {
          "internalType": "uint256",
          "name": "",
          "type": "uint256"
        },
        {
          "internalType": "address",
          "name": "",
          "type": "address"
        }
      ],
      "name": "userInfo",
      "outputs": [
        {
          "internalType": "uint256",
          "name": "amount",
          "type": "uint256"
        },
        {
          "internalType": "uint256",
          "name": "rewardDebt",
          "type": "uint256"
        }
      ],
      "stateMutability": "view",
      "type": "function"
    },
    {
      "inputs": [
        {
          "internalType": "uint256",
          "name": "pid",
          "type": "uint256"
        },
        {
          "internalType": "uint256",
          "name": "amount",
          "type": "uint256"
        }
      ],
      "name": "withdraw",
      "outputs": [],
      "stateMutability": "nonpayable",
      "type": "function"
    },
    {
      "inputs": [
        {
          "internalType": "uint256",
          "name": "pid",
          "type": "uint256"
        },
        {
          "internalType": "uint256",
          "name": "amount",
          "type": "uint256"
        }
      ],
      "name": "withdrawAndHarvest",
      "outputs": [],
      "stateMutability": "nonpayable",
      "type": "function"
    }
  ],
  "bytecode": "0x60a06040523480156200001157600080fd5b5060405162002675380380620026758339818101604052810190620000379190620002ec565b33600073ffffffffffffffffffffffffffffffffffffffff168173ffffffffffffffffffffffffffffffffffffffff1603620000ad5760006040517f1e4fbdf7000000000000000000000000000000000000000000000000000000008152600401620000a4919062000359565b60405180910390fd5b620000be816200018360201b60201c565b5060018081905550600073ffffffffffffffffffffffffffffffffffffffff168373ffffffffffffffffffffffffffffffffffffffff160362000138576040517f08c379a00000000000000000000000000000000000000000000000000000000081526004016200012f90620003d7565b60405180910390fd5b8273ffffffffffffffffffffffffffffffffffffffff1660808173ffffffffffffffffffffffffffffffffffffffff16815250508160028190555080600481905550505050620003f9565b60008060009054906101000a900473ffffffffffffffffffffffffffffffffffffffff169050816000806101000a81548173ffffffffffffffffffffffffffffffffffffffff021916908373ffffffffffffffffffffffffffffffffffffffff1602179055508173ffffffffffffffffffffffffffffffffffffffff168173ffffffffffffffffffffffffffffffffffffffff167f8be0079c531659141344cd1fd0a4f28419497f9722a3daafe3b4186f6b6457e060405160405180910390a35050565b600080fd5b600073ffffffffffffffffffffffffffffffffffffffff82169050919050565b600062000279826200024c565b9050919050565b6200028b816200026c565b81146200029757600080fd5b50565b600081519050620002ab8162000280565b92915050565b6000819050919050565b620002c681620002b1565b8114620002d257600080fd5b50565b600081519050620002e681620002bb565b92915050565b60008060006060848603121562000308576200030762000247565b5b600062000318868287016200029a565b93505060206200032b86828701620002d5565b92505060406200033e86828701620002d5565b9150509250925092565b62000353816200026c565b82525050565b600060208201905062000370600083018462000348565b92915050565b600082825260208201905092915050565b7f726577617264546f6b656e3d3000000000000000000000000000000000000000600082015250565b6000620003bf600d8362000376565b9150620003cc8262000387565b602082019050919050565b60006020820190508181036000830152620003f281620003b0565b9050919050565b60805161225262000423600039600081816114e20152818161161c01526116d701526122526000f3fe608060405234801561001057600080fd5b50600436106101425760003560e01c806378e97925116100b8578063b74fcc081161007c578063b74fcc081461031a578063d18df53c14610336578063ddc6326214610366578063e2bbb15814610382578063f2fde38b1461039e578063f7c618c1146103ba57610142565b806378e97925146102735780637abceffd146102915780638da5cb5b146102ad5780638f10369a146102cb57806393f1a40b146102e957610142565b8063441a3e701161010a578063441a3e70146101ef57806346ca6bea1461020b57806351eb05a6146102275780635312ea8e14610243578063630b5ba11461025f578063715018a61461026957610142565b8063081e3eda146101475780631526fe271461016557806317caf6f114610199578063348b597f146101b75780633ca77500146101d3575b600080fd5b61014f6103d8565b60405161015c9190611a8f565b60405180910390f35b61017f600480360381019061017a9190611adb565b6103e5565b604051610190959493929190611b87565b60405180910390f35b6101a161044b565b6040516101ae9190611a8f565b60405180910390f35b6101d160048036038101906101cc9190611bda565b610451565b005b6101ed60048036038101906101e89190611c52565b610646565b005b61020960048036038101906102049190611bda565b6106a3565b005b61022560048036038101906102209190611c92565b610898565b005b610241600480360381019061023c9190611adb565b610962565b005b61025d60048036038101906102589190611adb565b610a72565b005b610267610be2565b005b610271610c11565b005b61027b610c25565b6040516102889190611a8f565b60405180910390f35b6102ab60048036038101906102a69190611d23565b610c2b565b005b6102b5610e0b565b6040516102c29190611d85565b60405180910390f35b6102d3610e34565b6040516102e09190611a8f565b60405180910390f35b61030360048036038101906102fe9190611da0565b610e3a565b604051610311929190611de0565b60405180910390f35b610334600480360381019061032f9190611c52565b610e6b565b005b610350600480360381019061034b9190611da0565b610f9d565b60405161035d9190611a8f565b60405180910390f35b610380600480360381019061037b9190611adb565b6111db565b005b61039c60048036038101906103979190611bda565b6112aa565b005b6103b860048036038101906103b39190611e09565b61145a565b005b6103c26114e0565b6040516103cf9190611e36565b60405180910390f35b6000600580549050905090565b600581815481106103f557600080fd5b90600052602060002090600502016000915090508060000160009054906101000a900473ffffffffffffffffffffffffffffffffffffffff16908060010154908060020154908060030154908060040154905085565b60035481565b610459611504565b60006005838154811061046f5761046e611e51565b5b9060005260206000209060050201905060006006600085815260200190815260200160002060003373ffffffffffffffffffffffffffffffffffffffff1673ffffffffffffffffffffffffffffffffffffffff1681526020019081526020016000209050828160000154101561051a576040517f08c379a000000000000000000000000000000000000000000000000000000000815260040161051190611edd565b60405180910390fd5b61052384610962565b61052d843361154a565b5060008311156105bd578281600001600082825461054b9190611f2c565b92505081905550828260040160008282546105669190611f2c565b925050819055506105bc33848460000160009054906101000a900473ffffffffffffffffffffffffffffffffffffffff1673ffffffffffffffffffffffffffffffffffffffff166117779092919063ffffffff16565b5b64e8d4a51000826003015482600001546105d79190611f60565b6105e19190611fd1565b8160010181905550833373ffffffffffffffffffffffffffffffffffffffff167ff279e6a1f5e320cca91135676d9cb6e44ca8a08c0b88342bcdb1144f6511b568856040516106309190611a8f565b60405180910390a350506106426117f6565b5050565b61064e6117ff565b801561065d5761065c610be2565b5b7fad9b65d94abd7b01bc5e6f82634fc2860427247e02b5b06e1fefc524c6af512f60025483604051610690929190611de0565b60405180910390a1816002819055505050565b6106ab611504565b6000600583815481106106c1576106c0611e51565b5b9060005260206000209060050201905060006006600085815260200190815260200160002060003373ffffffffffffffffffffffffffffffffffffffff1673ffffffffffffffffffffffffffffffffffffffff1681526020019081526020016000209050828160000154101561076c576040517f08c379a000000000000000000000000000000000000000000000000000000000815260040161076390611edd565b60405180910390fd5b61077584610962565b61077f843361154a565b50600083111561080f578281600001600082825461079d9190611f2c565b92505081905550828260040160008282546107b89190611f2c565b9250508190555061080e33848460000160009054906101000a900473ffffffffffffffffffffffffffffffffffffffff1673ffffffffffffffffffffffffffffffffffffffff166117779092919063ffffffff16565b5b64e8d4a51000826003015482600001546108299190611f60565b6108339190611fd1565b8160010181905550833373ffffffffffffffffffffffffffffffffffffffff167ff279e6a1f5e320cca91135676d9cb6e44ca8a08c0b88342bcdb1144f6511b568856040516108829190611a8f565b60405180910390a350506108946117f6565b5050565b6108a06117ff565b80156108af576108ae610be2565b5b6000600584815481106108c5576108c4611e51565b5b906000526020600020906005020160010154905082600585815481106108ee576108ed611e51565b5b90600052602060002090600502016001018190555082816003546109129190611f2c565b61091c9190612002565b600381905550837f17cb2943c2b75826e10c84d8d48b9953b663936eb40867b23dfe8f4930b986868285604051610954929190611de0565b60405180910390a250505050565b60006005828154811061097857610977611e51565b5b90600052602060002090600502019050600042905060045481101561099d5760045490505b816002015481116109af575050610a6f565b6000826004015414806109c6575060008260010154145b806109d357506000600354145b156109e8578082600201819055505050610a6f565b60008260020154826109fa9190611f2c565b90506000600354846001015460025484610a149190611f60565b610a1e9190611f60565b610a289190611fd1565b9050836004015464e8d4a5100082610a409190611f60565b610a4a9190611fd1565b8460030154610a599190612002565b8460030181905550828460020181905550505050505b50565b610a7a611504565b600060058281548110610a9057610a8f611e51565b5b9060005260206000209060050201905060006006600084815260200190815260200160002060003373ffffffffffffffffffffffffffffffffffffffff1673ffffffffffffffffffffffffffffffffffffffff168152602001908152602001600020905060008160000154905060008260000181905550600082600101819055506000811115610b855780836004016000828254610b2e9190611f2c565b92505081905550610b8433828560000160009054906101000a900473ffffffffffffffffffffffffffffffffffffffff1673ffffffffffffffffffffffffffffffffffffffff166117779092919063ffffffff16565b5b833373ffffffffffffffffffffffffffffffffffffffff167fbb757047c2b5f3974fe26b7c10f732e7bce710b0952a71082702781e62ae059583604051610bcc9190611a8f565b60405180910390a3505050610bdf6117f6565b50565b6000600580549050905060005b81811015610c0d57610c0081610962565b8080600101915050610bef565b5050565b610c196117ff565b610c236000611886565b565b60045481565b610c336117ff565b600073ffffffffffffffffffffffffffffffffffffffff168273ffffffffffffffffffffffffffffffffffffffff1603610ca2576040517f08c379a0000000000000000000000000000000000000000000000000000000008152600401610c9990612082565b60405180910390fd5b8015610cb157610cb0610be2565b5b6000429050600454811015610cc65760045490505b60056040518060a001604052808573ffffffffffffffffffffffffffffffffffffffff168152602001868152602001838152602001600081526020016000815250908060018154018082558091505060019003906000526020600020906005020160009091909190915060008201518160000160006101000a81548173ffffffffffffffffffffffffffffffffffffffff021916908373ffffffffffffffffffffffffffffffffffffffff1602179055506020820151816001015560408201518160020155606082015181600301556080820151816004015550508360036000828254610db39190612002565b925050819055506001600580549050610dcc9190611f2c565b7f4b132ffdb152fb2a0fcabe7d9f8e5577c3ec5e665661d251acd4eebbc27555778486604051610dfd9291906120a2565b60405180910390a250505050565b60008060009054906101000a900473ffffffffffffffffffffffffffffffffffffffff16905090565b60025481565b6006602052816000526040600020602052806000526040600020600091509150508060000154908060010154905082565b610e736117ff565b6004544210610eb7576040517f08c379a0000000000000000000000000000000000000000000000000000000008152600401610eae90612117565b60405180910390fd5b42821015610efa576040517f08c379a0000000000000000000000000000000000000000000000000000000008152600401610ef190612183565b60405180910390fd5b8015610f0957610f08610be2565b5b7fc5d96bb822e978dea83cc07291d16b73acdc37f56327b69c33500fdbded5de6560045483604051610f3c929190611de0565b60405180910390a1816004819055506000600580549050905060005b81811015610f97578360058281548110610f7557610f74611e51565b5b9060005260206000209060050201600201819055508080600101915050610f58565b50505050565b60008060058481548110610fb457610fb3611e51565b5b90600052602060002090600502016040518060a00160405290816000820160009054906101000a900473ffffffffffffffffffffffffffffffffffffffff1673ffffffffffffffffffffffffffffffffffffffff1673ffffffffffffffffffffffffffffffffffffffff168152602001600182015481526020016002820154815260200160038201548152602001600482015481525050905060006006600086815260200190815260200160002060008573ffffffffffffffffffffffffffffffffffffffff1673ffffffffffffffffffffffffffffffffffffffff16815260200190815260200160002060405180604001604052908160008201548152602001600182015481525050905060008260600151905060008360400151905060004290506004548110156110e75760045490505b81811180156110fb57506000856080015114155b801561110a5750600060035414155b1561117d576000828261111d9190611f2c565b905060006003548760200151600254846111379190611f60565b6111419190611f60565b61114b9190611fd1565b9050866080015164e8d4a51000826111639190611f60565b61116d9190611fd1565b856111789190612002565b945050505b600064e8d4a510008486600001516111959190611f60565b61119f9190611fd1565b905084602001518110156111bc57600096505050505050506111d5565b8460200151816111cc9190611f2c565b96505050505050505b92915050565b6111e3611504565b6000600582815481106111f9576111f8611e51565b5b9060005260206000209060050201905060006006600084815260200190815260200160002060003373ffffffffffffffffffffffffffffffffffffffff1673ffffffffffffffffffffffffffffffffffffffff168152602001908152602001600020905061126683610962565b611270833361154a565b5064e8d4a510008260030154826000015461128b9190611f60565b6112959190611fd1565b816001018190555050506112a76117f6565b50565b6112b2611504565b6000600583815481106112c8576112c7611e51565b5b9060005260206000209060050201905060006006600085815260200190815260200160002060003373ffffffffffffffffffffffffffffffffffffffff1673ffffffffffffffffffffffffffffffffffffffff168152602001908152602001600020905061133584610962565b61133f843361154a565b5060008311156113d15761139a3330858560000160009054906101000a900473ffffffffffffffffffffffffffffffffffffffff1673ffffffffffffffffffffffffffffffffffffffff1661194a909392919063ffffffff16565b828160000160008282546113ae9190612002565b92505081905550828260040160008282546113c99190612002565b925050819055505b64e8d4a51000826003015482600001546113eb9190611f60565b6113f59190611fd1565b8160010181905550833373ffffffffffffffffffffffffffffffffffffffff167f90890809c654f11d6e72a28fa60149770a0d11ec6c92319d6ceb2bb0a4ea1a15856040516114449190611a8f565b60405180910390a350506114566117f6565b5050565b6114626117ff565b600073ffffffffffffffffffffffffffffffffffffffff168173ffffffffffffffffffffffffffffffffffffffff16036114d45760006040517f1e4fbdf70000000000000000000000000000000000000000000000000000000081526004016114cb9190611d85565b60405180910390fd5b6114dd81611886565b50565b7f000000000000000000000000000000000000000000000000000000000000000081565b600260015403611540576040517f3ee5aeb500000000000000000000000000000000000000000000000000000000815260040160405180910390fd5b6002600181905550565b6000806005848154811061156157611560611e51565b5b9060005260206000209060050201905060006006600086815260200190815260200160002060008573ffffffffffffffffffffffffffffffffffffffff1673ffffffffffffffffffffffffffffffffffffffff1681526020019081526020016000209050600064e8d4a51000836003015483600001546115e19190611f60565b6115eb9190611fd1565b9050816001015481116116045760009350505050611771565b60008260010154826116169190611f2c565b905060007f000000000000000000000000000000000000000000000000000000000000000073ffffffffffffffffffffffffffffffffffffffff166370a08231306040518263ffffffff1660e01b81526004016116739190611d85565b602060405180830381865afa158015611690573d6000803e3d6000fd5b505050506040513d601f19601f820116820180604052508101906116b491906121b8565b90508082116116c357816116c5565b805b9550600086111561171c5761171b87877f000000000000000000000000000000000000000000000000000000000000000073ffffffffffffffffffffffffffffffffffffffff166117779092919063ffffffff16565b5b878773ffffffffffffffffffffffffffffffffffffffff167f71bab65ced2e5750775a0613be067df48ef06cf92a496ebf7663ae0660924954886040516117639190611a8f565b60405180910390a350505050505b92915050565b6117f1838473ffffffffffffffffffffffffffffffffffffffff1663a9059cbb85856040516024016117aa9291906120a2565b604051602081830303815290604052915060e01b6020820180517bffffffffffffffffffffffffffffffffffffffffffffffffffffffff83818316178352505050506119cc565b505050565b60018081905550565b611807611a6e565b73ffffffffffffffffffffffffffffffffffffffff16611825610e0b565b73ffffffffffffffffffffffffffffffffffffffff161461188457611848611a6e565b6040517f118cdaa700000000000000000000000000000000000000000000000000000000815260040161187b9190611d85565b60405180910390fd5b565b60008060009054906101000a900473ffffffffffffffffffffffffffffffffffffffff169050816000806101000a81548173ffffffffffffffffffffffffffffffffffffffff021916908373ffffffffffffffffffffffffffffffffffffffff1602179055508173ffffffffffffffffffffffffffffffffffffffff168173ffffffffffffffffffffffffffffffffffffffff167f8be0079c531659141344cd1fd0a4f28419497f9722a3daafe3b4186f6b6457e060405160405180910390a35050565b6119c6848573ffffffffffffffffffffffffffffffffffffffff166323b872dd86868660405160240161197f939291906121e5565b604051602081830303815290604052915060e01b6020820180517bffffffffffffffffffffffffffffffffffffffffffffffffffffffff83818316178352505050506119cc565b50505050565b600080602060008451602086016000885af1806119ef576040513d6000823e3d81fd5b3d925060005191505060008214611a0a576001811415611a26565b60008473ffffffffffffffffffffffffffffffffffffffff163b145b15611a6857836040517f5274afe7000000000000000000000000000000000000000000000000000000008152600401611a5f9190611d85565b60405180910390fd5b50505050565b600033905090565b6000819050919050565b611a8981611a76565b82525050565b6000602082019050611aa46000830184611a80565b92915050565b600080fd5b611ab881611a76565b8114611ac357600080fd5b50565b600081359050611ad581611aaf565b92915050565b600060208284031215611af157611af0611aaa565b5b6000611aff84828501611ac6565b91505092915050565b600073ffffffffffffffffffffffffffffffffffffffff82169050919050565b6000819050919050565b6000611b4d611b48611b4384611b08565b611b28565b611b08565b9050919050565b6000611b5f82611b32565b9050919050565b6000611b7182611b54565b9050919050565b611b8181611b66565b82525050565b600060a082019050611b9c6000830188611b78565b611ba96020830187611a80565b611bb66040830186611a80565b611bc36060830185611a80565b611bd06080830184611a80565b9695505050505050565b60008060408385031215611bf157611bf0611aaa565b5b6000611bff85828601611ac6565b9250506020611c1085828601611ac6565b9150509250929050565b60008115159050919050565b611c2f81611c1a565b8114611c3a57600080fd5b50565b600081359050611c4c81611c26565b92915050565b60008060408385031215611c6957611c68611aaa565b5b6000611c7785828601611ac6565b9250506020611c8885828601611c3d565b9150509250929050565b600080600060608486031215611cab57611caa611aaa565b5b6000611cb986828701611ac6565b9350506020611cca86828701611ac6565b9250506040611cdb86828701611c3d565b9150509250925092565b6000611cf082611b08565b9050919050565b611d0081611ce5565b8114611d0b57600080fd5b50565b600081359050611d1d81611cf7565b92915050565b600080600060608486031215611d3c57611d3b611aaa565b5b6000611d4a86828701611ac6565b9350506020611d5b86828701611d0e565b9250506040611d6c86828701611c3d565b9150509250925092565b611d7f81611ce5565b82525050565b6000602082019050611d9a6000830184611d76565b92915050565b60008060408385031215611db757611db6611aaa565b5b6000611dc585828601611ac6565b9250506020611dd685828601611d0e565b9150509250929050565b6000604082019050611df56000830185611a80565b611e026020830184611a80565b9392505050565b600060208284031215611e1f57611e1e611aaa565b5b6000611e2d84828501611d0e565b91505092915050565b6000602082019050611e4b6000830184611b78565b92915050565b7f4e487b7100000000000000000000000000000000000000000000000000000000600052603260045260246000fd5b600082825260208201905092915050565b7f696e73756666696369656e74207374616b650000000000000000000000000000600082015250565b6000611ec7601283611e80565b9150611ed282611e91565b602082019050919050565b60006020820190508181036000830152611ef681611eba565b9050919050565b7f4e487b7100000000000000000000000000000000000000000000000000000000600052601160045260246000fd5b6000611f3782611a76565b9150611f4283611a76565b9250828203905081811115611f5a57611f59611efd565b5b92915050565b6000611f6b82611a76565b9150611f7683611a76565b9250828202611f8481611a76565b91508282048414831517611f9b57611f9a611efd565b5b5092915050565b7f4e487b7100000000000000000000000000000000000000000000000000000000600052601260045260246000fd5b6000611fdc82611a76565b9150611fe783611a76565b925082611ff757611ff6611fa2565b5b828204905092915050565b600061200d82611a76565b915061201883611a76565b92508282019050808211156120305761202f611efd565b5b92915050565b7f6c70546f6b656e3d300000000000000000000000000000000000000000000000600082015250565b600061206c600983611e80565b915061207782612036565b602082019050919050565b6000602082019050818103600083015261209b8161205f565b9050919050565b60006040820190506120b76000830185611d76565b6120c46020830184611a80565b9392505050565b7f616c726561647920737461727465640000000000000000000000000000000000600082015250565b6000612101600f83611e80565b915061210c826120cb565b602082019050919050565b60006020820190508181036000830152612130816120f4565b9050919050565b7f737461727420696e207061737400000000000000000000000000000000000000600082015250565b600061216d600d83611e80565b915061217882612137565b602082019050919050565b6000602082019050818103600083015261219c81612160565b9050919050565b6000815190506121b281611aaf565b92915050565b6000602082840312156121ce576121cd611aaa565b5b60006121dc848285016121a3565b91505092915050565b60006060820190506121fa6000830186611d76565b6122076020830185611d76565b6122146040830184611a80565b94935050505056fea264697066735822122062b059f16ef3d1d47de35e1247c49efcae19b1863e70a14a7adc856af9dd617164736f6c63430008180033",
  "linkReferences": {},
  "deployedLinkReferences": {}
}