{
  "_format": "hh-sol-artifact-1",
  "contractName": "Pair",
  "sourceName": "contracts/Pair.sol",
  "abi": [
    {
      "inputs": [
        {
          "internalType": "address",
          "name": "_token0",
          "type": "address"
        },
        {
          "internalType": "address",
          "name": "_token1",
          "type": "address"
        }
      ],
      "stateMutability": "nonpayable",
      "type": "constructor"
    },
    {
      "inputs": [
        {
          "internalType": "address",
          "name": "spender",
          "type": "address"
        },
        {
          "internalType": "uint256",
          "name": "allowance",
          "type": "uint256"
        },
        {
          "internalType": "uint256",
          "name": "needed",
          "type": "uint256"
        }
      ],
      "name": "ERC20InsufficientAllowance",
      "type": "error"
    },
    {
      "inputs": [
        {
          "internalType": "address",
          "name": "sender",
          "type": "address"
        },
        {
          "internalType": "uint256",
          "name": "balance",
          "type": "uint256"
        },
        {
          "internalType": "uint256",
          "name": "needed",
          "type": "uint256"
        }
      ],
      "name": "ERC20InsufficientBalance",
      "type": "error"
    },
    {
      "inputs": [
        {
          "internalType": "address",
          "name": "approver",
          "type": "address"
        }
      ],
      "name": "ERC20InvalidApprover",
      "type": "error"
    },
    {
      "inputs": [
        {
          "internalType": "address",
          "name": "receiver",
          "type": "address"
        }
      ],
      "name": "ERC20InvalidReceiver",
      "type": "error"
    },
    {
      "inputs": [
        {
          "internalType": "address",
          "name": "sender",
          "type": "address"
        }
      ],
      "name": "ERC20InvalidSender",
      "type": "error"
    },
    {
      "inputs": [
        {
          "internalType": "address",
          "name": "spender",
          "type": "address"
        }
      ],
      "name": "ERC20InvalidSpender",
      "type": "error"
    },
    {
      "anonymous": false,
      "inputs": [
        {
          "indexed": true,
          "internalType": "address",
          "name": "owner",
          "type": "address"
        },
        {
          "indexed": true,
          "internalType": "address",
          "name": "spender",
          "type": "address"
        },
        {
          "indexed": false,
          "internalType": "uint256",
          "name": "value",
          "type": "uint256"
        }
      ],
      "name": "Approval",
      "type": "event"
    },
    {
      "anonymous": false,
      "inputs": [
        {
          "indexed": true,
          "internalType": "address",
          "name": "sender",
          "type": "address"
        },
        {
          "indexed": false,
          "internalType": "uint256",
          "name": "amount0",
          "type": "uint256"
        },
        {
          "indexed": false,
          "internalType": "uint256",
          "name": "amount1",
          "type": "uint256"
        },
        {
          "indexed": true,
          "internalType": "address",
          "name": "to",
          "type": "address"
        }
      ],
      "name": "Burn",
      "type": "event"
    },
    {
      "anonymous": false,
      "inputs": [
        {
          "indexed": true,
          "internalType": "address",
          "name": "sender",
          "type": "address"
        },
        {
          "indexed": false,
          "internalType": "uint256",
          "name": "amount0",
          "type": "uint256"
        },
        {
          "indexed": false,
          "internalType": "uint256",
          "name": "amount1",
          "type": "uint256"
        }
      ],
      "name": "Mint",
      "type": "event"
    },
    {
      "anonymous": false,
      "inputs": [
        {
          "indexed": true,
          "internalType": "address",
          "name": "sender",
          "type": "address"
        },
        {
          "indexed": false,
          "internalType": "uint256",
          "name": "amount0In",
          "type": "uint256"
        },
        {
          "indexed": false,
          "internalType": "uint256",
          "name": "amount1In",
          "type": "uint256"
        },
        {
          "indexed": false,
          "internalType": "uint256",
          "name": "amount0Out",
          "type": "uint256"
        },
        {
          "indexed": false,
          "internalType": "uint256",
          "name": "amount1Out",
          "type": "uint256"
        },
        {
          "indexed": true,
          "internalType": "address",
          "name": "to",
          "type": "address"
        }
      ],
      "name": "Swap",
      "type": "event"
    },
    {
      "anonymous": false,
      "inputs": [
        {
          "indexed": false,
          "internalType": "uint112",
          "name": "reserve0",
          "type": "uint112"
        },
        {
          "indexed": false,
          "internalType": "uint112",
          "name": "reserve1",
          "type": "uint112"
        }
      ],
      "name": "Sync",
      "type": "event"
    },
    {
      "anonymous": false,
      "inputs": [
        {
          "indexed": true,
          "internalType": "address",
          "name": "from",
          "type": "address"
        },
        {
          "indexed": true,
          "internalType": "address",
          "name": "to",
          "type": "address"
        },
        {
          "indexed": false,
          "internalType": "uint256",
          "name": "value",
          "type": "uint256"
        }
      ],
      "name": "Transfer",
      "type": "event"
    },
    {
      "inputs": [
        {
          "internalType": "address",
          "name": "owner",
          "type": "address"
        },
        {
          "internalType": "address",
          "name": "spender",
          "type": "address"
        }
      ],
      "name": "allowance",
      "outputs": [
        {
          "internalType": "uint256",
          "name": "",
          "type": "uint256"
        }
      ],
      "stateMutability": "view",
      "type": "function"
    },
    {
      "inputs": [
        {
          "internalType": "address",
          "name": "spender",
          "type": "address"
        },
        {
          "internalType": "uint256",
          "name": "value",
          "type": "uint256"
        }
      ],
      "name": "approve",
      "outputs": [
        {
          "internalType": "bool",
          "name": "",
          "type": "bool"
        }
      ],
      "stateMutability": "nonpayable",
      "type": "function"
    },
    {
      "inputs": [
        {
          "internalType": "address",
          "name": "account",
          "type": "address"
        }
      ],
      "name": "balanceOf",
      "outputs": [
        {
          "internalType": "uint256",
          "name": "",
          "type": "uint256"
        }
      ],
      "stateMutability": "view",
      "type": "function"
    },
    {
      "inputs": [
        {
          "internalType": "address",
          "name": "to",
          "type": "address"
        }
      ],
      "name": "burn",
      "outputs": [
        {
          "internalType": "uint256",
          "name": "amount0",
          "type": "uint256"
        },
        {
          "internalType": "uint256",
          "name": "amount1",
          "type": "uint256"
        }
      ],
      "stateMutability": "nonpayable",
      "type": "function"
    },
    {
      "inputs": [],
      "name": "decimals",
      "outputs": [
        {
          "internalType": "uint8",
          "name": "",
          "type": "uint8"
        }
      ],
      "stateMutability": "view",
      "type": "function"
    },
    {
      "inputs": [],
      "name": "getReserves",
      "outputs": [
        {
          "internalType": "uint112",
          "name": "_reserve0",
          "type": "uint112"
        },
        {
          "internalType": "uint112",
          "name": "_reserve1",
          "type": "uint112"
        }
      ],
      "stateMutability": "view",
      "type": "function"
    },
    {
      "inputs": [
        {
          "internalType": "address",
          "name": "to",
          "type": "address"
        }
      ],
      "name": "mint",
      "outputs": [
        {
          "internalType": "uint256",
          "name": "liquidity",
          "type": "uint256"
        }
      ],
      "stateMutability": "nonpayable",
      "type": "function"
    },
    {
      "inputs": [],
      "name": "name",
      "outputs": [
        {
          "internalType": "string",
          "name": "",
          "type": "string"
        }
      ],
      "stateMutability": "view",
      "type": "function"
    },
    {
      "inputs": [
        {
          "internalType": "uint256",
          "name": "amount0Out",
          "type": "uint256"
        },
        {
          "internalType": "uint256",
          "name": "amount1Out",
          "type": "uint256"
        },
        {
          "internalType": "address",
          "name": "to",
          "type": "address"
        }
      ],
      "name": "swap",
      "outputs": [],
      "stateMutability": "nonpayable",
      "type": "function"
    },
    {
      "inputs": [],
      "name": "symbol",
      "outputs": [
        {
          "internalType": "string",
          "name": "",
          "type": "string"
        }
      ],
      "stateMutability": "view",
      "type": "function"
    },
    {
      "inputs": [],
      "name": "token0",
      "outputs": [
        {
          "internalType": "address",
          "name": "",
          "type": "address"
        }
      ],
      "stateMutability": "view",
      "type": "function"
    },
    {
      "inputs": [],
      "name": "token1",
      "outputs": [
        {
          "internalType": "address",
          "name": "",
          "type": "address"
        }
      ],
      "stateMutability": "view",
      "type": "function"
    },
    {
      "inputs": [],
      "name": "totalSupply",
      "outputs": [
        {
          "internalType": "uint256",
          "name": "",
          "type": "uint256"
        }
      ],
      "stateMutability": "view",
      "type": "function"
    },
    {
      "inputs": [
        {
          "internalType": "address",
          "name": "to",
          "type": "address"
        },
        {
          "internalType": "uint256",
          "name": "value",
          "type": "uint256"
        }
      ],
      "name": "transfer",
      "outputs": [
        {
          "internalType": "bool",
          "name": "",
          "type": "bool"
        }
      ],
      "stateMutability": "nonpayable",
      "type": "function"
    },
    {
      "inputs": [
        {
          "internalType": "address",
          "name": "from",
          "type": "address"
        },
        {
          "internalType": "address",
          "name": "to",
          "type": "address"
        },
        {
          "internalType": "uint256",
          "name": "value",
          "type": "uint256"
        }
      ],
      "name": "transferFrom",
      "outputs": [
        {
          "internalType": "bool",
          "name": "",
          "type": "bool"
        }
      ],
      "stateMutability": "nonpayable",
      "type": "function"
    }
  ],
  "bytecode": "0x60806040523480156200001157600080fd5b5060405162003188380380620031888339818101604052810190620000379190620002db565b6040518060400160405280600b81526020017f4d696e6953776170204c500000000000000000000000000000000000000000008152506040518060400160405280600481526020017f4d534c50000000000000000000000000000000000000000000000000000000008152508160039081620000b491906200059c565b508060049081620000c691906200059c565b5050508073ffffffffffffffffffffffffffffffffffffffff168273ffffffffffffffffffffffffffffffffffffffff16036200013a576040517f08c379a00000000000000000000000000000000000000000000000000000000081526004016200013190620006e4565b60405180910390fd5b600073ffffffffffffffffffffffffffffffffffffffff168273ffffffffffffffffffffffffffffffffffffffff1614158015620001a55750600073ffffffffffffffffffffffffffffffffffffffff168173ffffffffffffffffffffffffffffffffffffffff1614155b620001e7576040517f08c379a0000000000000000000000000000000000000000000000000000000008152600401620001de9062000756565b60405180910390fd5b81600560006101000a81548173ffffffffffffffffffffffffffffffffffffffff021916908373ffffffffffffffffffffffffffffffffffffffff16021790555080600660006101000a81548173ffffffffffffffffffffffffffffffffffffffff021916908373ffffffffffffffffffffffffffffffffffffffff160217905550505062000778565b600080fd5b600073ffffffffffffffffffffffffffffffffffffffff82169050919050565b6000620002a38262000276565b9050919050565b620002b58162000296565b8114620002c157600080fd5b50565b600081519050620002d581620002aa565b92915050565b60008060408385031215620002f557620002f462000271565b5b60006200030585828601620002c4565b92505060206200031885828601620002c4565b9150509250929050565b600081519050919050565b7f4e487b7100000000000000000000000000000000000000000000000000000000600052604160045260246000fd5b7f4e487b7100000000000000000000000000000000000000000000000000000000600052602260045260246000fd5b60006002820490506001821680620003a457607f821691505b602082108103620003ba57620003b96200035c565b5b50919050565b60008190508160005260206000209050919050565b60006020601f8301049050919050565b600082821b905092915050565b600060088302620004247fffffffffffffffffffffffffffffffffffffffffffffffffffffffffffffffff82620003e5565b620004308683620003e5565b95508019841693508086168417925050509392505050565b6000819050919050565b6000819050919050565b60006200047d62000477620004718462000448565b62000452565b62000448565b9050919050565b6000819050919050565b62000499836200045c565b620004b1620004a88262000484565b848454620003f2565b825550505050565b600090565b620004c8620004b9565b620004d58184846200048e565b505050565b5b81811015620004fd57620004f1600082620004be565b600181019050620004db565b5050565b601f8211156200054c576200051681620003c0565b6200052184620003d5565b8101602085101562000531578190505b620005496200054085620003d5565b830182620004da565b50505b505050565b600082821c905092915050565b6000620005716000198460080262000551565b1980831691505092915050565b60006200058c83836200055e565b9150826002028217905092915050565b620005a78262000322565b67ffffffffffffffff811115620005c357620005c26200032d565b5b620005cf82546200038b565b620005dc82828562000501565b600060209050601f831160018114620006145760008415620005ff578287015190505b6200060b85826200057e565b8655506200067b565b601f1984166200062486620003c0565b60005b828110156200064e5784890151825560018201915060208501945060208101905062000627565b868310156200066e57848901516200066a601f8916826200055e565b8355505b6001600288020188555050505b505050505050565b600082825260208201905092915050565b7f4944454e544943414c5f41444452455353455300000000000000000000000000600082015250565b6000620006cc60138362000683565b9150620006d98262000694565b602082019050919050565b60006020820190508181036000830152620006ff81620006bd565b9050919050565b7f5a45524f5f414444524553530000000000000000000000000000000000000000600082015250565b60006200073e600c8362000683565b91506200074b8262000706565b602082019050919050565b6000602082019050818103600083015262000771816200072f565b9050919050565b612a0080620007886000396000f3fe608060405234801561001057600080fd5b50600436106100f55760003560e01c80636a6278421161009757806395d89b411161006657806395d89b411461029e578063a9059cbb146102bc578063d21220a7146102ec578063dd62ed3e1461030a576100f5565b80636a627842146101f15780636d9a640a1461022157806370a082311461023d57806389afcb441461026d576100f5565b80630dfe1681116100d35780630dfe16811461016757806318160ddd1461018557806323b872dd146101a3578063313ce567146101d3576100f5565b806306fdde03146100fa5780630902f1ac14610118578063095ea7b314610137575b600080fd5b61010261033a565b60405161010f9190611f6f565b60405180910390f35b6101206103cc565b60405161012e929190611fba565b60405180910390f35b610151600480360381019061014c919061207c565b610411565b60405161015e91906120d7565b60405180910390f35b61016f610434565b60405161017c9190612101565b60405180910390f35b61018d61045a565b60405161019a919061212b565b60405180910390f35b6101bd60048036038101906101b89190612146565b610464565b6040516101ca91906120d7565b60405180910390f35b6101db610493565b6040516101e891906121b5565b60405180910390f35b61020b600480360381019061020691906121d0565b61049c565b604051610218919061212b565b60405180910390f35b61023b600480360381019061023691906121fd565b610809565b005b610257600480360381019061025291906121d0565b610f56565b604051610264919061212b565b60405180910390f35b610287600480360381019061028291906121d0565b610f9e565b604051610295929190612250565b60405180910390f35b6102a66114f9565b6040516102b39190611f6f565b60405180910390f35b6102d660048036038101906102d1919061207c565b61158b565b6040516102e391906120d7565b60405180910390f35b6102f46115ae565b6040516103019190612101565b60405180910390f35b610324600480360381019061031f9190612279565b6115d4565b604051610331919061212b565b60405180910390f35b606060038054610349906122e8565b80601f0160208091040260200160405190810160405280929190818152602001828054610375906122e8565b80156103c25780601f10610397576101008083540402835291602001916103c2565b820191906000526020600020905b8154815290600101906020018083116103a557829003601f168201915b5050505050905090565b600080600760009054906101000a90046dffffffffffffffffffffffffffff166007600e9054906101000a90046dffffffffffffffffffffffffffff16915091509091565b60008061041c61165b565b9050610429818585611663565b600191505092915050565b600560009054906101000a900473ffffffffffffffffffffffffffffffffffffffff1681565b6000600254905090565b60008061046f61165b565b905061047c858285611675565b61048785858561170a565b60019150509392505050565b60006012905090565b600080600560009054906101000a900473ffffffffffffffffffffffffffffffffffffffff1673ffffffffffffffffffffffffffffffffffffffff166370a08231306040518263ffffffff1660e01b81526004016104fa9190612101565b602060405180830381865afa158015610517573d6000803e3d6000fd5b505050506040513d601f19601f8201168201806040525081019061053b919061232e565b90506000600660009054906101000a900473ffffffffffffffffffffffffffffffffffffffff1673ffffffffffffffffffffffffffffffffffffffff166370a08231306040518263ffffffff1660e01b815260040161059a9190612101565b602060405180830381865afa1580156105b7573d6000803e3d6000fd5b505050506040513d601f19601f820116820180604052508101906105db919061232e565b90506000600760009054906101000a90046dffffffffffffffffffffffffffff166dffffffffffffffffffffffffffff1683610617919061238a565b905060006007600e9054906101000a90046dffffffffffffffffffffffffffff166dffffffffffffffffffffffffffff1683610653919061238a565b9050600061065f61045a565b9050600081036106c75761067d828461067891906123be565b6117fe565b9550600086116106c2576040517f08c379a00000000000000000000000000000000000000000000000000000000081526004016106b99061244c565b60405180910390fd5b61079b565b610755600760009054906101000a90046dffffffffffffffffffffffffffff166dffffffffffffffffffffffffffff16828561070391906123be565b61070d919061249b565b6007600e9054906101000a90046dffffffffffffffffffffffffffff166dffffffffffffffffffffffffffff16838561074691906123be565b610750919061249b565b611878565b95506000861161079a576040517f08c379a00000000000000000000000000000000000000000000000000000000081526004016107919061244c565b60405180910390fd5b5b6107a58787611891565b6107af8585611913565b3373ffffffffffffffffffffffffffffffffffffffff167f4c209b5fc8ad50758f13e2e1088ba56a560dff690a1c6fef26394f4c03821c4f84846040516107f7929190612250565b60405180910390a25050505050919050565b60008311806108185750600082115b610857576040517f08c379a000000000000000000000000000000000000000000000000000000000815260040161084e90612518565b60405180910390fd5b600560009054906101000a900473ffffffffffffffffffffffffffffffffffffffff1673ffffffffffffffffffffffffffffffffffffffff168173ffffffffffffffffffffffffffffffffffffffff16141580156109035750600660009054906101000a900473ffffffffffffffffffffffffffffffffffffffff1673ffffffffffffffffffffffffffffffffffffffff168173ffffffffffffffffffffffffffffffffffffffff1614155b610942576040517f08c379a000000000000000000000000000000000000000000000000000000000815260040161093990612584565b60405180910390fd5b6000600760009054906101000a90046dffffffffffffffffffffffffffff16905060006007600e9054906101000a90046dffffffffffffffffffffffffffff169050816dffffffffffffffffffffffffffff16851080156109b25750806dffffffffffffffffffffffffffff1684105b6109f1576040517f08c379a00000000000000000000000000000000000000000000000000000000081526004016109e8906125f0565b60405180910390fd5b6000851115610ada57600560009054906101000a900473ffffffffffffffffffffffffffffffffffffffff1673ffffffffffffffffffffffffffffffffffffffff1663a9059cbb84876040518363ffffffff1660e01b8152600401610a57929190612610565b6020604051808303816000875af1158015610a76573d6000803e3d6000fd5b505050506040513d601f19601f82011682018060405250810190610a9a9190612665565b610ad9576040517f08c379a0000000000000000000000000000000000000000000000000000000008152600401610ad0906126de565b60405180910390fd5b5b6000841115610bc357600660009054906101000a900473ffffffffffffffffffffffffffffffffffffffff1673ffffffffffffffffffffffffffffffffffffffff1663a9059cbb84866040518363ffffffff1660e01b8152600401610b40929190612610565b6020604051808303816000875af1158015610b5f573d6000803e3d6000fd5b505050506040513d601f19601f82011682018060405250810190610b839190612665565b610bc2576040517f08c379a0000000000000000000000000000000000000000000000000000000008152600401610bb99061274a565b60405180910390fd5b5b6000600560009054906101000a900473ffffffffffffffffffffffffffffffffffffffff1673ffffffffffffffffffffffffffffffffffffffff166370a08231306040518263ffffffff1660e01b8152600401610c209190612101565b602060405180830381865afa158015610c3d573d6000803e3d6000fd5b505050506040513d601f19601f82011682018060405250810190610c61919061232e565b90506000600660009054906101000a900473ffffffffffffffffffffffffffffffffffffffff1673ffffffffffffffffffffffffffffffffffffffff166370a08231306040518263ffffffff1660e01b8152600401610cc09190612101565b602060405180830381865afa158015610cdd573d6000803e3d6000fd5b505050506040513d601f19601f82011682018060405250810190610d01919061232e565b9050600087856dffffffffffffffffffffffffffff16610d21919061238a565b8311610d2e576000610d56565b87856dffffffffffffffffffffffffffff16610d4a919061238a565b83610d55919061238a565b5b9050600087856dffffffffffffffffffffffffffff16610d76919061238a565b8311610d83576000610dab565b87856dffffffffffffffffffffffffffff16610d9f919061238a565b83610daa919061238a565b5b90506000821180610dbc5750600081115b610dfb576040517f08c379a0000000000000000000000000000000000000000000000000000000008152600401610df2906127b6565b60405180910390fd5b6000600383610e0a91906123be565b6103e886610e1891906123be565b610e22919061238a565b90506000600383610e3391906123be565b6103e886610e4191906123be565b610e4b919061238a565b9050620f4240876dffffffffffffffffffffffffffff16896dffffffffffffffffffffffffffff16610e7d91906123be565b610e8791906123be565b8183610e9391906123be565b1015610ed4576040517f08c379a0000000000000000000000000000000000000000000000000000000008152600401610ecb90612822565b60405180910390fd5b610ede8686611913565b8873ffffffffffffffffffffffffffffffffffffffff163373ffffffffffffffffffffffffffffffffffffffff167fd78ad95fa46c994b6551d0da85fc275fe613ce37657fb8d5e3d130840159d82286868f8f604051610f419493929190612842565b60405180910390a35050505050505050505050565b60008060008373ffffffffffffffffffffffffffffffffffffffff1673ffffffffffffffffffffffffffffffffffffffff168152602001908152602001600020549050919050565b6000806000600560009054906101000a900473ffffffffffffffffffffffffffffffffffffffff1673ffffffffffffffffffffffffffffffffffffffff166370a08231306040518263ffffffff1660e01b8152600401610ffe9190612101565b602060405180830381865afa15801561101b573d6000803e3d6000fd5b505050506040513d601f19601f8201168201806040525081019061103f919061232e565b90506000600660009054906101000a900473ffffffffffffffffffffffffffffffffffffffff1673ffffffffffffffffffffffffffffffffffffffff166370a08231306040518263ffffffff1660e01b815260040161109e9190612101565b602060405180830381865afa1580156110bb573d6000803e3d6000fd5b505050506040513d601f19601f820116820180604052508101906110df919061232e565b905060006110ec30610f56565b905060006110f861045a565b905080848361110791906123be565b611111919061249b565b955080838361112091906123be565b61112a919061249b565b945060008611801561113c5750600085115b61117b576040517f08c379a0000000000000000000000000000000000000000000000000000000008152600401611172906128d3565b60405180910390fd5b6111853083611a61565b600560009054906101000a900473ffffffffffffffffffffffffffffffffffffffff1673ffffffffffffffffffffffffffffffffffffffff1663a9059cbb88886040518363ffffffff1660e01b81526004016111e2929190612610565b6020604051808303816000875af1158015611201573d6000803e3d6000fd5b505050506040513d601f19601f820116820180604052508101906112259190612665565b611264576040517f08c379a000000000000000000000000000000000000000000000000000000000815260040161125b906126de565b60405180910390fd5b600660009054906101000a900473ffffffffffffffffffffffffffffffffffffffff1673ffffffffffffffffffffffffffffffffffffffff1663a9059cbb88876040518363ffffffff1660e01b81526004016112c1929190612610565b6020604051808303816000875af11580156112e0573d6000803e3d6000fd5b505050506040513d601f19601f820116820180604052508101906113049190612665565b611343576040517f08c379a000000000000000000000000000000000000000000000000000000000815260040161133a9061274a565b60405180910390fd5b600560009054906101000a900473ffffffffffffffffffffffffffffffffffffffff1673ffffffffffffffffffffffffffffffffffffffff166370a08231306040518263ffffffff1660e01b815260040161139e9190612101565b602060405180830381865afa1580156113bb573d6000803e3d6000fd5b505050506040513d601f19601f820116820180604052508101906113df919061232e565b9350600660009054906101000a900473ffffffffffffffffffffffffffffffffffffffff1673ffffffffffffffffffffffffffffffffffffffff166370a08231306040518263ffffffff1660e01b815260040161143c9190612101565b602060405180830381865afa158015611459573d6000803e3d6000fd5b505050506040513d601f19601f8201168201806040525081019061147d919061232e565b92506114898484611913565b8673ffffffffffffffffffffffffffffffffffffffff163373ffffffffffffffffffffffffffffffffffffffff167fdccd412f0b1252819cb1fd330b93224ca42612892bb3f4f789976e6d8193649688886040516114e8929190612250565b60405180910390a350505050915091565b606060048054611508906122e8565b80601f0160208091040260200160405190810160405280929190818152602001828054611534906122e8565b80156115815780601f1061155657610100808354040283529160200191611581565b820191906000526020600020905b81548152906001019060200180831161156457829003601f168201915b5050505050905090565b60008061159661165b565b90506115a381858561170a565b600191505092915050565b600660009054906101000a900473ffffffffffffffffffffffffffffffffffffffff1681565b6000600160008473ffffffffffffffffffffffffffffffffffffffff1673ffffffffffffffffffffffffffffffffffffffff16815260200190815260200160002060008373ffffffffffffffffffffffffffffffffffffffff1673ffffffffffffffffffffffffffffffffffffffff16815260200190815260200160002054905092915050565b600033905090565b6116708383836001611ae3565b505050565b600061168184846115d4565b90507fffffffffffffffffffffffffffffffffffffffffffffffffffffffffffffffff81101561170457818110156116f4578281836040517ffb8f41b20000000000000000000000000000000000000000000000000000000081526004016116eb939291906128f3565b60405180910390fd5b61170384848484036000611ae3565b5b50505050565b600073ffffffffffffffffffffffffffffffffffffffff168373ffffffffffffffffffffffffffffffffffffffff160361177c5760006040517f96c6fd1e0000000000000000000000000000000000000000000000000000000081526004016117739190612101565b60405180910390fd5b600073ffffffffffffffffffffffffffffffffffffffff168273ffffffffffffffffffffffffffffffffffffffff16036117ee5760006040517fec442f050000000000000000000000000000000000000000000000000000000081526004016117e59190612101565b60405180910390fd5b6117f9838383611cba565b505050565b60006003821115611865578190506000600160028461181d919061249b565b611827919061292a565b90505b8181101561185f578091506002818285611844919061249b565b61184e919061292a565b611858919061249b565b905061182a565b50611873565b6000821461187257600190505b5b919050565b60008183106118875781611889565b825b905092915050565b600073ffffffffffffffffffffffffffffffffffffffff168273ffffffffffffffffffffffffffffffffffffffff16036119035760006040517fec442f050000000000000000000000000000000000000000000000000000000081526004016118fa9190612101565b60405180910390fd5b61190f60008383611cba565b5050565b6dffffffffffffffffffffffffffff8016821115801561194357506dffffffffffffffffffffffffffff80168111155b611982576040517f08c379a0000000000000000000000000000000000000000000000000000000008152600401611979906129aa565b60405180910390fd5b81600760006101000a8154816dffffffffffffffffffffffffffff02191690836dffffffffffffffffffffffffffff160217905550806007600e6101000a8154816dffffffffffffffffffffffffffff02191690836dffffffffffffffffffffffffffff1602179055507f1c411e9a96e071241c2f21f7726b17ae89e3cab4c78be50e062b03a9fffbbad1600760009054906101000a90046dffffffffffffffffffffffffffff166007600e9054906101000a90046dffffffffffffffffffffffffffff16604051611a55929190611fba565b60405180910390a15050565b600073ffffffffffffffffffffffffffffffffffffffff168273ffffffffffffffffffffffffffffffffffffffff1603611ad35760006040517f96c6fd1e000000000000000000000000000000000000000000000000000000008152600401611aca9190612101565b60405180910390fd5b611adf82600083611cba565b5050565b600073ffffffffffffffffffffffffffffffffffffffff168473ffffffffffffffffffffffffffffffffffffffff1603611b555760006040517fe602df05000000000000000000000000000000000000000000000000000000008152600401611b4c9190612101565b60405180910390fd5b600073ffffffffffffffffffffffffffffffffffffffff168373ffffffffffffffffffffffffffffffffffffffff1603611bc75760006040517f94280d62000000000000000000000000000000000000000000000000000000008152600401611bbe9190612101565b60405180910390fd5b81600160008673ffffffffffffffffffffffffffffffffffffffff1673ffffffffffffffffffffffffffffffffffffffff16815260200190815260200160002060008573ffffffffffffffffffffffffffffffffffffffff1673ffffffffffffffffffffffffffffffffffffffff168152602001908152602001600020819055508015611cb4578273ffffffffffffffffffffffffffffffffffffffff168473ffffffffffffffffffffffffffffffffffffffff167f8c5be1e5ebec7d5bd14f71427d1e84f3dd0314c0f7b2291e5b200ac8c7c3b92584604051611cab919061212b565b60405180910390a35b50505050565b600073ffffffffffffffffffffffffffffffffffffffff168373ffffffffffffffffffffffffffffffffffffffff1603611d0c578060026000828254611d00919061292a565b92505081905550611ddf565b60008060008573ffffffffffffffffffffffffffffffffffffffff1673ffffffffffffffffffffffffffffffffffffffff16815260200190815260200160002054905081811015611d98578381836040517fe450d38c000000000000000000000000000000000000000000000000000000008152600401611d8f939291906128f3565b60405180910390fd5b8181036000808673ffffffffffffffffffffffffffffffffffffffff1673ffffffffffffffffffffffffffffffffffffffff16815260200190815260200160002081905550505b600073ffffffffffffffffffffffffffffffffffffffff168273ffffffffffffffffffffffffffffffffffffffff1603611e285780600260008282540392505081905550611e75565b806000808473ffffffffffffffffffffffffffffffffffffffff1673ffffffffffffffffffffffffffffffffffffffff168152602001908152602001600020600082825401925050819055505b8173ffffffffffffffffffffffffffffffffffffffff168373ffffffffffffffffffffffffffffffffffffffff167fddf252ad1be2c89b69c2b068fc378daa952ba7f163c4a11628f55a4df523b3ef83604051611ed2919061212b565b60405180910390a3505050565b600081519050919050565b600082825260208201905092915050565b60005b83811015611f19578082015181840152602081019050611efe565b60008484015250505050565b6000601f19601f8301169050919050565b6000611f4182611edf565b611f4b8185611eea565b9350611f5b818560208601611efb565b611f6481611f25565b840191505092915050565b60006020820190508181036000830152611f898184611f36565b905092915050565b60006dffffffffffffffffffffffffffff82169050919050565b611fb481611f91565b82525050565b6000604082019050611fcf6000830185611fab565b611fdc6020830184611fab565b9392505050565b600080fd5b600073ffffffffffffffffffffffffffffffffffffffff82169050919050565b600061201382611fe8565b9050919050565b61202381612008565b811461202e57600080fd5b50565b6000813590506120408161201a565b92915050565b6000819050919050565b61205981612046565b811461206457600080fd5b50565b60008135905061207681612050565b92915050565b6000806040838503121561209357612092611fe3565b5b60006120a185828601612031565b92505060206120b285828601612067565b9150509250929050565b60008115159050919050565b6120d1816120bc565b82525050565b60006020820190506120ec60008301846120c8565b92915050565b6120fb81612008565b82525050565b600060208201905061211660008301846120f2565b92915050565b61212581612046565b82525050565b6000602082019050612140600083018461211c565b92915050565b60008060006060848603121561215f5761215e611fe3565b5b600061216d86828701612031565b935050602061217e86828701612031565b925050604061218f86828701612067565b9150509250925092565b600060ff82169050919050565b6121af81612199565b82525050565b60006020820190506121ca60008301846121a6565b92915050565b6000602082840312156121e6576121e5611fe3565b5b60006121f484828501612031565b91505092915050565b60008060006060848603121561221657612215611fe3565b5b600061222486828701612067565b935050602061223586828701612067565b925050604061224686828701612031565b9150509250925092565b6000604082019050612265600083018561211c565b612272602083018461211c565b9392505050565b600080604083850312156122905761228f611fe3565b5b600061229e85828601612031565b92505060206122af85828601612031565b9150509250929050565b7f4e487b7100000000000000000000000000000000000000000000000000000000600052602260045260246000fd5b6000600282049050600182168061230057607f821691505b602082108103612313576123126122b9565b5b50919050565b60008151905061232881612050565b92915050565b60006020828403121561234457612343611fe3565b5b600061235284828501612319565b91505092915050565b7f4e487b7100000000000000000000000000000000000000000000000000000000600052601160045260246000fd5b600061239582612046565b91506123a083612046565b92508282039050818111156123b8576123b761235b565b5b92915050565b60006123c982612046565b91506123d483612046565b92508282026123e281612046565b915082820484148315176123f9576123f861235b565b5b5092915050565b7f494e53554646494349454e545f4c49515549444954595f4d494e544544000000600082015250565b6000612436601d83611eea565b915061244182612400565b602082019050919050565b6000602082019050818103600083015261246581612429565b9050919050565b7f4e487b7100000000000000000000000000000000000000000000000000000000600052601260045260246000fd5b60006124a682612046565b91506124b183612046565b9250826124c1576124c061246c565b5b828204905092915050565b7f494e53554646494349454e545f4f555450555400000000000000000000000000600082015250565b6000612502601383611eea565b915061250d826124cc565b602082019050919050565b60006020820190508181036000830152612531816124f5565b9050919050565b7f494e56414c49445f544f00000000000000000000000000000000000000000000600082015250565b600061256e600a83611eea565b915061257982612538565b602082019050919050565b6000602082019050818103600083015261259d81612561565b9050919050565b7f494e53554646494349454e545f4c495155494449545900000000000000000000600082015250565b60006125da601683611eea565b91506125e5826125a4565b602082019050919050565b60006020820190508181036000830152612609816125cd565b9050919050565b600060408201905061262560008301856120f2565b612632602083018461211c565b9392505050565b612642816120bc565b811461264d57600080fd5b50565b60008151905061265f81612639565b92915050565b60006020828403121561267b5761267a611fe3565b5b600061268984828501612650565b91505092915050565b7f54305f5452414e534645525f4641494c45440000000000000000000000000000600082015250565b60006126c8601283611eea565b91506126d382612692565b602082019050919050565b600060208201905081810360008301526126f7816126bb565b9050919050565b7f54315f5452414e534645525f4641494c45440000000000000000000000000000600082015250565b6000612734601283611eea565b915061273f826126fe565b602082019050919050565b6000602082019050818103600083015261276381612727565b9050919050565b7f494e53554646494349454e545f494e5055540000000000000000000000000000600082015250565b60006127a0601283611eea565b91506127ab8261276a565b602082019050919050565b600060208201905081810360008301526127cf81612793565b9050919050565b7f4b00000000000000000000000000000000000000000000000000000000000000600082015250565b600061280c600183611eea565b9150612817826127d6565b602082019050919050565b6000602082019050818103600083015261283b816127ff565b9050919050565b6000608082019050612857600083018761211c565b612864602083018661211c565b612871604083018561211c565b61287e606083018461211c565b95945050505050565b7f494e53554646494349454e545f4c49515549444954595f4255524e4544000000600082015250565b60006128bd601d83611eea565b91506128c882612887565b602082019050919050565b600060208201905081810360008301526128ec816128b0565b9050919050565b600060608201905061290860008301866120f2565b612915602083018561211c565b612922604083018461211c565b949350505050565b600061293582612046565b915061294083612046565b92508282019050808211156129585761295761235b565b5b92915050565b7f4f564552464c4f57000000000000000000000000000000000000000000000000600082015250565b6000612994600883611eea565b915061299f8261295e565b602082019050919050565b600060208201905081810360008301526129c381612987565b905091905056fea26469706673582212203ae2530ef0199a0a2a0f81ebd3283fa716ac617be451524cb67436fcbafd7f3b64736f6c63430008180033",
  "linkReferences": {},
  "deployedLinkReferences": {}
}