{
  "_format": "hh-sol-artifact-1",
  "contractName": "Router",
  "sourceName": "contracts/Router.sol",
  "abi": [
    {
      "inputs": [
        {
          "internalType": "address",
          "name": "_factory",
          "type": "address"
        }
      ],
      "stateMutability": "nonpayable",
      "type": "constructor"
    },
    {
      "inputs": [],
      "name": "Expired",
      "type": "error"
    },
    {
      "inputs": [],
      "name": "InsufficientAAmount",
      "type": "error"
    },
    {
      "inputs": [],
      "name": "InsufficientBAmount",
      "type": "error"
    },
    {
      "inputs": [],
      "name": "InsufficientOutputAmount",
      "type": "error"
    },
    {
      "inputs": [],
      "name": "InvalidPath",
      "type": "error"
    },
    {
      "inputs": [],
      "name": "InvalidTo",
      "type": "error"
    },
    {
      "inputs": [],
      "name": "PairNotFound",
      "type": "error"
    },
    {
      "inputs": [],
      "name": "TransferFailed",
      "type": "error"
    },
    {
      "inputs": [
        {
          "internalType": "address",
          "name": "tokenA",
          "type": "address"
        },
        {
          "internalType": "address",
          "name": "tokenB",
          "type": "address"
        },
        {
          "internalType": "uint256",
          "name": "amountADesired",
          "type": "uint256"
        },
        {
          "internalType": "uint256",
          "name": "amountBDesired",
          "type": "uint256"
        },
        {
          "internalType": "uint256",
          "name": "amountAMin",
          "type": "uint256"
        },
        {
          "internalType": "uint256",
          "name": "amountBMin",
          "type": "uint256"
        },
        {
          "internalType": "address",
          "name": "to",
          "type": "address"
        }
      ],
      "name": "addLiquidity",
      "outputs": [
        {
          "internalType": "uint256",
          "name": "amountA",
          "type": "uint256"
        },
        {
          "internalType": "uint256",
          "name": "amountB",
          "type": "uint256"
        },
        {
          "internalType": "uint256",
          "name": "liquidity",
          "type": "uint256"
        }
      ],
      "stateMutability": "nonpayable",
      "type": "function"
    },
    {
      "inputs": [],
      "name": "factory",
      "outputs": [
        {
          "internalType": "address",
          "name": "",
          "type": "address"
        }
      ],
      "stateMutability": "view",
      "type": "function"
    },
    {
      "inputs": [
        {
          "internalType": "uint256",
          "name": "amountIn",
          "type": "uint256"
        },
        {
          "internalType": "uint256",
          "name": "reserveIn",
          "type": "uint256"
        },
        {
          "internalType": "uint256",
          "name": "reserveOut",
          "type": "uint256"
        }
      ],
      "name": "getAmountOut",
      "outputs": [
        {
          "internalType": "uint256",
          "name": "",
          "type": "uint256"
        }
      ],
      "stateMutability": "pure",
      "type": "function"
    },
    {
      "inputs": [
        {
          "internalType": "uint256",
          "name": "amountIn",
          "type": "uint256"
        },
        {
          "internalType": "address[]",
          "name": "path",
          "type": "address[]"
        }
      ],
      "name": "getAmountsOut",
      "outputs": [
        {
          "internalType": "uint256[]",
          "name": "amounts",
          "type": "uint256[]"
        }
      ],
      "stateMutability": "view",
      "type": "function"
    },
    {
      "inputs": [
        {
          "internalType": "address",
          "name": "tokenA",
          "type": "address"
        },
        {
          "internalType": "address",
          "name": "tokenB",
          "type": "address"
        }
      ],
      "name": "getPair",
      "outputs": [
        {
          "internalType": "address",
          "name": "",
          "type": "address"
        }
      ],
      "stateMutability": "view",
      "type": "function"
    },
    {
      "inputs": [
        {
          "internalType": "uint256",
          "name": "amountA",
          "type": "uint256"
        },
        {
          "internalType": "uint256",
          "name": "reserveA",
          "type": "uint256"
        },
        {
          "internalType": "uint256",
          "name": "reserveB",
          "type": "uint256"
        }
      ],
      "name": "quote",
      "outputs": [
        {
          "internalType": "uint256",
          "name": "amountB",
          "type": "uint256"
        }
      ],
      "stateMutability": "pure",
      "type": "function"
    },
    {
      "inputs": [
        {
          "internalType": "address",
          "name": "tokenA",
          "type": "address"
        },
        {
          "internalType": "address",
          "name": "tokenB",
          "type": "address"
        },
        {
          "internalType": "uint256",
          "name": "liquidity",
          "type": "uint256"
        },
        {
          "internalType": "uint256",
          "name": "amountAMin",
          "type": "uint256"
        },
        {
          "internalType": "uint256",
          "name": "amountBMin",
          "type": "uint256"
        },
        {
          "internalType": "address",
          "name": "to",
          "type": "address"
        }
      ],
      "name": "removeLiquidity",
      "outputs": [
        {
          "internalType": "uint256",
          "name": "amountA",
          "type": "uint256"
        },
        {
          "internalType": "uint256",
          "name": "amountB",
          "type": "uint256"
        }
      ],
      "stateMutability": "nonpayable",
      "type": "function"
    },
    {
      "inputs": [
        {
          "internalType": "uint256",
          "name": "amountIn",
          "type": "uint256"
        },
        {
          "internalType": "uint256",
          "name": "amountOutMin",
          "type": "uint256"
        },
        {
          "internalType": "address[]",
          "name": "path",
          "type": "address[]"
        },
        {
          "internalType": "address",
          "name": "to",
          "type": "address"
        },
        {
          "internalType": "uint256",
          "name": "deadline",
          "type": "uint256"
        }
      ],
      "name": "swapExactTokensForTokens",
      "outputs": [
        {
          "internalType": "uint256",
          "name": "amountOut",
          "type": "uint256"
        }
      ],
      "stateMutability": "nonpayable",
      "type": "function"
    }
  ],
  "bytecode": "0x60a06040523480156200001157600080fd5b506040516200249b3803806200249b8339818101604052810190620000379190620000dc565b8073ffffffffffffffffffffffffffffffffffffffff1660808173ffffffffffffffffffffffffffffffffffffffff1681525050506200010e565b600080fd5b600073ffffffffffffffffffffffffffffffffffffffff82169050919050565b6000620000a48262000077565b9050919050565b620000b68162000097565b8114620000c257600080fd5b50565b600081519050620000d681620000ab565b92915050565b600060208284031215620000f557620000f462000072565b5b60006200010584828501620000c5565b91505092915050565b6080516123396200016260003960008181610442015281816106da01528181610a5701528181610d2201528181610ea3015281816110aa015281816111ca01528181611439015261150b01526123396000f3fe608060405234801561001057600080fd5b50600436106100885760003560e01c8063c45a01551161005b578063c45a01551461014e578063ca3d65391461016c578063d06ca61f1461019e578063e6a43905146101ce57610088565b8063054d50d41461008d57806338ed1739146100bd578063ad615dec146100ed578063c0e3ee6b1461011d575b600080fd5b6100a760048036038101906100a29190611775565b6101fe565b6040516100b491906117d7565b60405180910390f35b6100d760048036038101906100d291906118b5565b6102dc565b6040516100e491906117d7565b60405180910390f35b61010760048036038101906101029190611775565b610620565b60405161011491906117d7565b60405180910390f35b6101376004803603810190610132919061194f565b6106d3565b6040516101459291906119dc565b60405180910390f35b610156610a55565b6040516101639190611a14565b60405180910390f35b61018660048036038101906101819190611a2f565b610a79565b60405161019593929190611ad1565b60405180910390f35b6101b860048036038101906101b39190611c57565b610c11565b6040516101c59190611d71565b60405180910390f35b6101e860048036038101906101e39190611d93565b610e9f565b6040516101f59190611a14565b60405180910390f35b6000808411610242576040517f08c379a000000000000000000000000000000000000000000000000000000000815260040161023990611e30565b60405180910390fd5b6000831180156102525750600082115b610291576040517f08c379a000000000000000000000000000000000000000000000000000000000815260040161028890611e9c565b60405180910390fd5b60006103e5856102a19190611eeb565b9050806103e8856102b29190611eeb565b6102bc9190611f2d565b83826102c89190611eeb565b6102d29190611f90565b9150509392505050565b60006102e782610f45565b600073ffffffffffffffffffffffffffffffffffffffff168373ffffffffffffffffffffffffffffffffffffffff160361034d576040517f290fa18800000000000000000000000000000000000000000000000000000000815260040160405180910390fd5b600285859050101561038b576040517f20db826700000000000000000000000000000000000000000000000000000000815260040160405180910390fd5b60006103d888878780806020026020016040519081016040528093929190818152602001838360200280828437600081840152601f19601f82011690508083019250505050505050610c11565b905080600182516103e99190611fc1565b815181106103fa576103f9611ff5565b5b602002602001015191508682101561043e576040517f42301c2300000000000000000000000000000000000000000000000000000000815260040160405180910390fd5b60007f000000000000000000000000000000000000000000000000000000000000000073ffffffffffffffffffffffffffffffffffffffff1663e6a43905888860008181106104905761048f611ff5565b5b90506020020160208101906104a59190612024565b898960018181106104b9576104b8611ff5565b5b90506020020160208101906104ce9190612024565b6040518363ffffffff1660e01b81526004016104eb929190612051565b602060405180830381865afa158015610508573d6000803e3d6000fd5b505050506040513d601f19601f8201168201806040525081019061052c919061208f565b9050600073ffffffffffffffffffffffffffffffffffffffff168173ffffffffffffffffffffffffffffffffffffffff1603610594576040517fd719ab6900000000000000000000000000000000000000000000000000000000815260040160405180910390fd5b6105c8878760008181106105ab576105aa611ff5565b5b90506020020160208101906105c09190612024565b33838c610f82565b61061482888880806020026020016040519081016040528093929190818152602001838360200280828437600081840152601f19601f8201169050808301925050505050505087611044565b50509695505050505050565b6000808411610664576040517f08c379a000000000000000000000000000000000000000000000000000000000815260040161065b90612108565b60405180910390fd5b6000831180156106745750600082115b6106b3576040517f08c379a00000000000000000000000000000000000000000000000000000000081526004016106aa90611e9c565b60405180910390fd5b8282856106c09190611eeb565b6106ca9190611f90565b90509392505050565b60008060007f000000000000000000000000000000000000000000000000000000000000000073ffffffffffffffffffffffffffffffffffffffff1663e6a439058a8a6040518363ffffffff1660e01b8152600401610733929190612051565b602060405180830381865afa158015610750573d6000803e3d6000fd5b505050506040513d601f19601f82011682018060405250810190610774919061208f565b9050600073ffffffffffffffffffffffffffffffffffffffff168173ffffffffffffffffffffffffffffffffffffffff16036107dc576040517fd719ab6900000000000000000000000000000000000000000000000000000000815260040160405180910390fd5b60008173ffffffffffffffffffffffffffffffffffffffff166323b872dd33848b6040518463ffffffff1660e01b815260040161081b93929190612128565b6020604051808303816000875af115801561083a573d6000803e3d6000fd5b505050506040513d601f19601f8201168201806040525081019061085e9190612197565b905080610897576040517f90b8ec1800000000000000000000000000000000000000000000000000000000815260040160405180910390fd5b6000808373ffffffffffffffffffffffffffffffffffffffff166389afcb44886040518263ffffffff1660e01b81526004016108d39190611a14565b60408051808303816000875af11580156108f1573d6000803e3d6000fd5b505050506040513d601f19601f8201168201806040525081019061091591906121d9565b9150915060008473ffffffffffffffffffffffffffffffffffffffff16630dfe16816040518163ffffffff1660e01b8152600401602060405180830381865afa158015610966573d6000803e3d6000fd5b505050506040513d601f19601f8201168201806040525081019061098a919061208f565b90508073ffffffffffffffffffffffffffffffffffffffff168d73ffffffffffffffffffffffffffffffffffffffff16146109c65781836109c9565b82825b809750819850505089871015610a0b576040517f8dc525d100000000000000000000000000000000000000000000000000000000815260040160405180910390fd5b88861015610a45576040517fef71d09100000000000000000000000000000000000000000000000000000000815260040160405180910390fd5b5050505050965096945050505050565b7f000000000000000000000000000000000000000000000000000000000000000081565b600080600080610a898b8b611435565b9050600080610a99838e8e6115b0565b91509150600082148015610aad5750600081145b15610abd578a9550899450610b6b565b6000610aca8c8484610620565b90508a8111610b185788811015610b0d576040517fef71d09100000000000000000000000000000000000000000000000000000000815260040160405180910390fd5b8b9650809550610b69565b6000610b258c8486610620565b90508a811015610b61576040517f8dc525d100000000000000000000000000000000000000000000000000000000815260040160405180910390fd5b8097508b9650505b505b610b778d338589610f82565b610b838c338588610f82565b8273ffffffffffffffffffffffffffffffffffffffff16636a627842886040518263ffffffff1660e01b8152600401610bbc9190611a14565b6020604051808303816000875af1158015610bdb573d6000803e3d6000fd5b505050506040513d601f19601f82011682018060405250810190610bff9190612219565b93505050509750975097945050505050565b6060600282511015610c4f576040517f20db826700000000000000000000000000000000000000000000000000000000815260040160405180910390fd5b815167ffffffffffffffff811115610c6a57610c69611b19565b5b604051908082528060200260200182016040528015610c985781602001602082028036833780820191505090505b5090508281600081518110610cb057610caf611ff5565b5b60200260200101818152505060005b60018351610ccd9190611fc1565b811015610e98576000838281518110610ce957610ce8611ff5565b5b60200260200101519050600084600184610d039190611f2d565b81518110610d1457610d13611ff5565b5b6020026020010151905060007f000000000000000000000000000000000000000000000000000000000000000073ffffffffffffffffffffffffffffffffffffffff1663e6a4390584846040518363ffffffff1660e01b8152600401610d7b929190612051565b602060405180830381865afa158015610d98573d6000803e3d6000fd5b505050506040513d601f19601f82011682018060405250810190610dbc919061208f565b9050600073ffffffffffffffffffffffffffffffffffffffff168173ffffffffffffffffffffffffffffffffffffffff1603610e24576040517fd719ab6900000000000000000000000000000000000000000000000000000000815260040160405180910390fd5b600080610e328386866115b0565b91509150610e5b878781518110610e4c57610e4b611ff5565b5b602002602001015183836101fe565b87600188610e699190611f2d565b81518110610e7a57610e79611ff5565b5b60200260200101818152505050505050508080600101915050610cbf565b5092915050565b60007f000000000000000000000000000000000000000000000000000000000000000073ffffffffffffffffffffffffffffffffffffffff1663e6a4390584846040518363ffffffff1660e01b8152600401610efc929190612051565b602060405180830381865afa158015610f19573d6000803e3d6000fd5b505050506040513d601f19601f82011682018060405250810190610f3d919061208f565b905092915050565b80421115610f7f576040517f203d82d800000000000000000000000000000000000000000000000000000000815260040160405180910390fd5b50565b60008473ffffffffffffffffffffffffffffffffffffffff166323b872dd8585856040518463ffffffff1660e01b8152600401610fc193929190612128565b6020604051808303816000875af1158015610fe0573d6000803e3d6000fd5b505050506040513d601f19601f820116820180604052508101906110049190612197565b90508061103d576040517f90b8ec1800000000000000000000000000000000000000000000000000000000815260040160405180910390fd5b5050505050565b60005b600183516110559190611fc1565b81101561142f57600083828151811061107157611070611ff5565b5b6020026020010151905060008460018461108b9190611f2d565b8151811061109c5761109b611ff5565b5b6020026020010151905060007f000000000000000000000000000000000000000000000000000000000000000073ffffffffffffffffffffffffffffffffffffffff1663e6a4390584846040518363ffffffff1660e01b8152600401611103929190612051565b602060405180830381865afa158015611120573d6000803e3d6000fd5b505050506040513d601f19601f82011682018060405250810190611144919061208f565b9050600073ffffffffffffffffffffffffffffffffffffffff168173ffffffffffffffffffffffffffffffffffffffff16036111ac576040517fd719ab6900000000000000000000000000000000000000000000000000000000815260040160405180910390fd5b6000600287516111bc9190611fc1565b85106111c8578561128b565b7f000000000000000000000000000000000000000000000000000000000000000073ffffffffffffffffffffffffffffffffffffffff1663e6a4390584896002896112139190611f2d565b8151811061122457611223611ff5565b5b60200260200101516040518363ffffffff1660e01b8152600401611249929190612051565b602060405180830381865afa158015611266573d6000803e3d6000fd5b505050506040513d601f19601f8201168201806040525081019061128a919061208f565b5b905060008860018761129d9190611f2d565b815181106112ae576112ad611ff5565b5b6020026020010151905060008373ffffffffffffffffffffffffffffffffffffffff16630dfe16816040518163ffffffff1660e01b8152600401602060405180830381865afa158015611305573d6000803e3d6000fd5b505050506040513d601f19601f82011682018060405250810190611329919061208f565b905060008173ffffffffffffffffffffffffffffffffffffffff168673ffffffffffffffffffffffffffffffffffffffff1614611367576000611369565b825b905060008273ffffffffffffffffffffffffffffffffffffffff168773ffffffffffffffffffffffffffffffffffffffff16146113a657836113a9565b60005b90508573ffffffffffffffffffffffffffffffffffffffff16636d9a640a8383886040518463ffffffff1660e01b81526004016113e893929190612246565b600060405180830381600087803b15801561140257600080fd5b505af1158015611416573d6000803e3d6000fd5b5050505050505050505050508080600101915050611047565b50505050565b60007f000000000000000000000000000000000000000000000000000000000000000073ffffffffffffffffffffffffffffffffffffffff1663e6a4390584846040518363ffffffff1660e01b8152600401611492929190612051565b602060405180830381865afa1580156114af573d6000803e3d6000fd5b505050506040513d601f19601f820116820180604052508101906114d3919061208f565b9050600073ffffffffffffffffffffffffffffffffffffffff168173ffffffffffffffffffffffffffffffffffffffff16036115aa577f000000000000000000000000000000000000000000000000000000000000000073ffffffffffffffffffffffffffffffffffffffff1663c9c6539684846040518363ffffffff1660e01b8152600401611564929190612051565b6020604051808303816000875af1158015611583573d6000803e3d6000fd5b505050506040513d601f19601f820116820180604052508101906115a7919061208f565b90505b92915050565b60008060008573ffffffffffffffffffffffffffffffffffffffff16630dfe16816040518163ffffffff1660e01b8152600401602060405180830381865afa158015611600573d6000803e3d6000fd5b505050506040513d601f19601f82011682018060405250810190611624919061208f565b90506000808773ffffffffffffffffffffffffffffffffffffffff16630902f1ac6040518163ffffffff1660e01b81526004016040805180830381865afa158015611673573d6000803e3d6000fd5b505050506040513d601f19601f8201168201806040525081019061169791906122c3565b915091508273ffffffffffffffffffffffffffffffffffffffff168773ffffffffffffffffffffffffffffffffffffffff16036116f957816dffffffffffffffffffffffffffff169450806dffffffffffffffffffffffffffff169350611720565b806dffffffffffffffffffffffffffff169450816dffffffffffffffffffffffffffff1693505b505050935093915050565b6000604051905090565b600080fd5b600080fd5b6000819050919050565b6117528161173f565b811461175d57600080fd5b50565b60008135905061176f81611749565b92915050565b60008060006060848603121561178e5761178d611735565b5b600061179c86828701611760565b93505060206117ad86828701611760565b92505060406117be86828701611760565b9150509250925092565b6117d18161173f565b82525050565b60006020820190506117ec60008301846117c8565b92915050565b600080fd5b600080fd5b600080fd5b60008083601f840112611817576118166117f2565b5b8235905067ffffffffffffffff811115611834576118336117f7565b5b6020830191508360208202830111156118505761184f6117fc565b5b9250929050565b600073ffffffffffffffffffffffffffffffffffffffff82169050919050565b600061188282611857565b9050919050565b61189281611877565b811461189d57600080fd5b50565b6000813590506118af81611889565b92915050565b60008060008060008060a087890312156118d2576118d1611735565b5b60006118e089828a01611760565b96505060206118f189828a01611760565b955050604087013567ffffffffffffffff8111156119125761191161173a565b5b61191e89828a01611801565b9450945050606061193189828a016118a0565b925050608061194289828a01611760565b9150509295509295509295565b60008060008060008060c0878903121561196c5761196b611735565b5b600061197a89828a016118a0565b965050602061198b89828a016118a0565b955050604061199c89828a01611760565b94505060606119ad89828a01611760565b93505060806119be89828a01611760565b92505060a06119cf89828a016118a0565b9150509295509295509295565b60006040820190506119f160008301856117c8565b6119fe60208301846117c8565b9392505050565b611a0e81611877565b82525050565b6000602082019050611a296000830184611a05565b92915050565b600080600080600080600060e0888a031215611a4e57611a4d611735565b5b6000611a5c8a828b016118a0565b9750506020611a6d8a828b016118a0565b9650506040611a7e8a828b01611760565b9550506060611a8f8a828b01611760565b9450506080611aa08a828b01611760565b93505060a0611ab18a828b01611760565b92505060c0611ac28a828b016118a0565b91505092959891949750929550565b6000606082019050611ae660008301866117c8565b611af360208301856117c8565b611b0060408301846117c8565b949350505050565b6000601f19601f8301169050919050565b7f4e487b7100000000000000000000000000000000000000000000000000000000600052604160045260246000fd5b611b5182611b08565b810181811067ffffffffffffffff82111715611b7057611b6f611b19565b5b80604052505050565b6000611b8361172b565b9050611b8f8282611b48565b919050565b600067ffffffffffffffff821115611baf57611bae611b19565b5b602082029050602081019050919050565b6000611bd3611bce84611b94565b611b79565b90508083825260208201905060208402830185811115611bf657611bf56117fc565b5b835b81811015611c1f5780611c0b88826118a0565b845260208401935050602081019050611bf8565b5050509392505050565b600082601f830112611c3e57611c3d6117f2565b5b8135611c4e848260208601611bc0565b91505092915050565b60008060408385031215611c6e57611c6d611735565b5b6000611c7c85828601611760565b925050602083013567ffffffffffffffff811115611c9d57611c9c61173a565b5b611ca985828601611c29565b9150509250929050565b600081519050919050565b600082825260208201905092915050565b6000819050602082019050919050565b611ce88161173f565b82525050565b6000611cfa8383611cdf565b60208301905092915050565b6000602082019050919050565b6000611d1e82611cb3565b611d288185611cbe565b9350611d3383611ccf565b8060005b83811015611d64578151611d4b8882611cee565b9750611d5683611d06565b925050600181019050611d37565b5085935050505092915050565b60006020820190508181036000830152611d8b8184611d13565b905092915050565b60008060408385031215611daa57611da9611735565b5b6000611db8858286016118a0565b9250506020611dc9858286016118a0565b9150509250929050565b600082825260208201905092915050565b7f494e53554646494349454e545f494e5055545f414d4f554e5400000000000000600082015250565b6000611e1a601983611dd3565b9150611e2582611de4565b602082019050919050565b60006020820190508181036000830152611e4981611e0d565b9050919050565b7f494e53554646494349454e545f4c495155494449545900000000000000000000600082015250565b6000611e86601683611dd3565b9150611e9182611e50565b602082019050919050565b60006020820190508181036000830152611eb581611e79565b9050919050565b7f4e487b7100000000000000000000000000000000000000000000000000000000600052601160045260246000fd5b6000611ef68261173f565b9150611f018361173f565b9250828202611f0f8161173f565b91508282048414831517611f2657611f25611ebc565b5b5092915050565b6000611f388261173f565b9150611f438361173f565b9250828201905080821115611f5b57611f5a611ebc565b5b92915050565b7f4e487b7100000000000000000000000000000000000000000000000000000000600052601260045260246000fd5b6000611f9b8261173f565b9150611fa68361173f565b925082611fb657611fb5611f61565b5b828204905092915050565b6000611fcc8261173f565b9150611fd78361173f565b9250828203905081811115611fef57611fee611ebc565b5b92915050565b7f4e487b7100000000000000000000000000000000000000000000000000000000600052603260045260246000fd5b60006020828403121561203a57612039611735565b5b6000612048848285016118a0565b91505092915050565b60006040820190506120666000830185611a05565b6120736020830184611a05565b9392505050565b60008151905061208981611889565b92915050565b6000602082840312156120a5576120a4611735565b5b60006120b38482850161207a565b91505092915050565b7f494e53554646494349454e545f414d4f554e5400000000000000000000000000600082015250565b60006120f2601383611dd3565b91506120fd826120bc565b602082019050919050565b60006020820190508181036000830152612121816120e5565b9050919050565b600060608201905061213d6000830186611a05565b61214a6020830185611a05565b61215760408301846117c8565b949350505050565b60008115159050919050565b6121748161215f565b811461217f57600080fd5b50565b6000815190506121918161216b565b92915050565b6000602082840312156121ad576121ac611735565b5b60006121bb84828501612182565b91505092915050565b6000815190506121d381611749565b92915050565b600080604083850312156121f0576121ef611735565b5b60006121fe858286016121c4565b925050602061220f858286016121c4565b9150509250929050565b60006020828403121561222f5761222e611735565b5b600061223d848285016121c4565b91505092915050565b600060608201905061225b60008301866117c8565b61226860208301856117c8565b6122756040830184611a05565b949350505050565b60006dffffffffffffffffffffffffffff82169050919050565b6122a08161227d565b81146122ab57600080fd5b50565b6000815190506122bd81612297565b92915050565b600080604083850312156122da576122d9611735565b5b60006122e8858286016122ae565b92505060206122f9858286016122ae565b915050925092905056fea26469706673582212206179e5009766f400b2f493510e96a5878a74611d295f84d6516b56c0d67409a864736f6c63430008180033",
  "linkReferences": {},
  "deployedLinkReferences": {}
}